{
  "contractName": "NFT",
  "abi": [
    {
      "inputs": [],
      "stateMutability": "nonpayable",
      "type": "constructor"
    },
    {
      "anonymous": false,
      "inputs": [
        {
          "indexed": false,
          "internalType": "uint256",
          "name": "NFT_ID",
          "type": "uint256"
        },
        {
          "indexed": false,
          "internalType": "string",
          "name": "imgUrl",
          "type": "string"
        },
        {
          "indexed": false,
          "internalType": "uint256",
          "name": "nftprice",
          "type": "uint256"
        },
        {
          "indexed": false,
          "internalType": "string",
          "name": "nft_title",
          "type": "string"
        },
        {
          "indexed": false,
          "internalType": "string",
          "name": "nftDescription",
          "type": "string"
        },
        {
          "indexed": false,
          "internalType": "string",
          "name": "nftcreator",
          "type": "string"
        }
      ],
      "name": "AddNFT",
      "type": "event"
    },
    {
      "anonymous": false,
      "inputs": [
        {
          "indexed": true,
          "internalType": "address",
          "name": "owner",
          "type": "address"
        },
        {
          "indexed": true,
          "internalType": "address",
          "name": "approved",
          "type": "address"
        },
        {
          "indexed": true,
          "internalType": "uint256",
          "name": "tokenId",
          "type": "uint256"
        }
      ],
      "name": "Approval",
      "type": "event"
    },
    {
      "anonymous": false,
      "inputs": [
        {
          "indexed": true,
          "internalType": "address",
          "name": "owner",
          "type": "address"
        },
        {
          "indexed": true,
          "internalType": "address",
          "name": "operator",
          "type": "address"
        },
        {
          "indexed": false,
          "internalType": "bool",
          "name": "approved",
          "type": "bool"
        }
      ],
      "name": "ApprovalForAll",
      "type": "event"
    },
    {
      "anonymous": false,
      "inputs": [
        {
          "indexed": true,
          "internalType": "address",
          "name": "previousOwner",
          "type": "address"
        },
        {
          "indexed": true,
          "internalType": "address",
          "name": "newOwner",
          "type": "address"
        }
      ],
      "name": "OwnershipTransferred",
      "type": "event"
    },
    {
      "anonymous": false,
      "inputs": [
        {
          "indexed": true,
          "internalType": "address",
          "name": "from",
          "type": "address"
        },
        {
          "indexed": true,
          "internalType": "address",
          "name": "to",
          "type": "address"
        },
        {
          "indexed": true,
          "internalType": "uint256",
          "name": "tokenId",
          "type": "uint256"
        }
      ],
      "name": "Transfer",
      "type": "event"
    },
    {
      "anonymous": false,
      "inputs": [
        {
          "indexed": false,
          "internalType": "address",
          "name": "nftowner",
          "type": "address"
        },
        {
          "indexed": false,
          "internalType": "address",
          "name": "buyaddress",
          "type": "address"
        },
        {
          "indexed": false,
          "internalType": "uint256",
          "name": "buyprice",
          "type": "uint256"
        },
        {
          "indexed": false,
          "internalType": "uint256",
          "name": "buytime",
          "type": "uint256"
        }
      ],
      "name": "buynft",
      "type": "event"
    },
    {
      "anonymous": false,
      "inputs": [
        {
          "indexed": false,
          "internalType": "address",
          "name": "nftowner",
          "type": "address"
        },
        {
          "indexed": false,
          "internalType": "uint256",
          "name": "offerPrice",
          "type": "uint256"
        },
        {
          "indexed": false,
          "internalType": "uint256",
          "name": "offercreatedtime",
          "type": "uint256"
        },
        {
          "indexed": false,
          "internalType": "uint256",
          "name": "offerended",
          "type": "uint256"
        }
      ],
      "name": "sellNFT",
      "type": "event"
    },
    {
      "inputs": [
        {
          "internalType": "uint256",
          "name": "",
          "type": "uint256"
        }
      ],
      "name": "NFTId",
      "outputs": [
        {
          "internalType": "uint256",
          "name": "",
          "type": "uint256"
        }
      ],
      "stateMutability": "view",
      "type": "function",
      "constant": true
    },
    {
      "inputs": [
        {
          "internalType": "address",
          "name": "to",
          "type": "address"
        },
        {
          "internalType": "uint256",
          "name": "tokenId",
          "type": "uint256"
        }
      ],
      "name": "approve",
      "outputs": [],
      "stateMutability": "nonpayable",
      "type": "function"
    },
    {
      "inputs": [
        {
          "internalType": "address",
          "name": "owner",
          "type": "address"
        }
      ],
      "name": "balanceOf",
      "outputs": [
        {
          "internalType": "uint256",
          "name": "",
          "type": "uint256"
        }
      ],
      "stateMutability": "view",
      "type": "function",
      "constant": true
    },
    {
      "inputs": [
        {
          "internalType": "uint256",
          "name": "",
          "type": "uint256"
        }
      ],
      "name": "data",
      "outputs": [
        {
          "internalType": "uint256",
          "name": "id",
          "type": "uint256"
        },
        {
          "internalType": "address",
          "name": "nftowner",
          "type": "address"
        },
        {
          "internalType": "string",
          "name": "imgUrl",
          "type": "string"
        },
        {
          "internalType": "uint256",
          "name": "nftprice",
          "type": "uint256"
        },
        {
          "internalType": "string",
          "name": "nft_title",
          "type": "string"
        },
        {
          "internalType": "string",
          "name": "nftDescription",
          "type": "string"
        },
        {
          "internalType": "string",
          "name": "nftcreator",
          "type": "string"
        }
      ],
      "stateMutability": "view",
      "type": "function",
      "constant": true
    },
    {
      "inputs": [
        {
          "internalType": "uint256",
          "name": "tokenId",
          "type": "uint256"
        }
      ],
      "name": "getApproved",
      "outputs": [
        {
          "internalType": "address",
          "name": "",
          "type": "address"
        }
      ],
      "stateMutability": "view",
      "type": "function",
      "constant": true
    },
    {
      "inputs": [
        {
          "internalType": "address",
          "name": "owner",
          "type": "address"
        },
        {
          "internalType": "address",
          "name": "operator",
          "type": "address"
        }
      ],
      "name": "isApprovedForAll",
      "outputs": [
        {
          "internalType": "bool",
          "name": "",
          "type": "bool"
        }
      ],
      "stateMutability": "view",
      "type": "function",
      "constant": true
    },
    {
      "inputs": [],
      "name": "name",
      "outputs": [
        {
          "internalType": "string",
          "name": "",
          "type": "string"
        }
      ],
      "stateMutability": "view",
      "type": "function",
      "constant": true
    },
    {
      "inputs": [],
      "name": "offerExpirationTime",
      "outputs": [
        {
          "internalType": "uint256",
          "name": "",
          "type": "uint256"
        }
      ],
      "stateMutability": "view",
      "type": "function",
      "constant": true
    },
    {
      "inputs": [],
      "name": "owner",
      "outputs": [
        {
          "internalType": "address",
          "name": "",
          "type": "address"
        }
      ],
      "stateMutability": "view",
      "type": "function",
      "constant": true
    },
    {
      "inputs": [
        {
          "internalType": "uint256",
          "name": "tokenId",
          "type": "uint256"
        }
      ],
      "name": "ownerOf",
      "outputs": [
        {
          "internalType": "address",
          "name": "",
          "type": "address"
        }
      ],
      "stateMutability": "view",
      "type": "function",
      "constant": true
    },
    {
      "inputs": [],
      "name": "renounceOwnership",
      "outputs": [],
      "stateMutability": "nonpayable",
      "type": "function"
    },
    {
      "inputs": [
        {
          "internalType": "address",
          "name": "from",
          "type": "address"
        },
        {
          "internalType": "address",
          "name": "to",
          "type": "address"
        },
        {
          "internalType": "uint256",
          "name": "tokenId",
          "type": "uint256"
        }
      ],
      "name": "safeTransferFrom",
      "outputs": [],
      "stateMutability": "nonpayable",
      "type": "function"
    },
    {
      "inputs": [
        {
          "internalType": "address",
          "name": "from",
          "type": "address"
        },
        {
          "internalType": "address",
          "name": "to",
          "type": "address"
        },
        {
          "internalType": "uint256",
          "name": "tokenId",
          "type": "uint256"
        },
        {
          "internalType": "bytes",
          "name": "data",
          "type": "bytes"
        }
      ],
      "name": "safeTransferFrom",
      "outputs": [],
      "stateMutability": "nonpayable",
      "type": "function"
    },
    {
      "inputs": [
        {
          "internalType": "uint256",
          "name": "",
          "type": "uint256"
        }
      ],
      "name": "sellData",
      "outputs": [
        {
          "internalType": "uint256",
          "name": "Id",
          "type": "uint256"
        },
        {
          "internalType": "address",
          "name": "NFTOwner",
          "type": "address"
        },
        {
          "internalType": "uint256",
          "name": "Price",
          "type": "uint256"
        },
        {
          "internalType": "bool",
          "name": "is_Offer",
          "type": "bool"
        },
        {
          "internalType": "uint256",
          "name": "OfferEnd",
          "type": "uint256"
        }
      ],
      "stateMutability": "view",
      "type": "function",
      "constant": true
    },
    {
      "inputs": [
        {
          "internalType": "address",
          "name": "operator",
          "type": "address"
        },
        {
          "internalType": "bool",
          "name": "approved",
          "type": "bool"
        }
      ],
      "name": "setApprovalForAll",
      "outputs": [],
      "stateMutability": "nonpayable",
      "type": "function"
    },
    {
      "inputs": [],
      "name": "symbol",
      "outputs": [
        {
          "internalType": "string",
          "name": "",
          "type": "string"
        }
      ],
      "stateMutability": "view",
      "type": "function",
      "constant": true
    },
    {
      "inputs": [
        {
          "internalType": "uint256",
          "name": "index",
          "type": "uint256"
        }
      ],
      "name": "tokenByIndex",
      "outputs": [
        {
          "internalType": "uint256",
          "name": "",
          "type": "uint256"
        }
      ],
      "stateMutability": "view",
      "type": "function",
      "constant": true
    },
    {
      "inputs": [
        {
          "internalType": "address",
          "name": "owner",
          "type": "address"
        },
        {
          "internalType": "uint256",
          "name": "index",
          "type": "uint256"
        }
      ],
      "name": "tokenOfOwnerByIndex",
      "outputs": [
        {
          "internalType": "uint256",
          "name": "",
          "type": "uint256"
        }
      ],
      "stateMutability": "view",
      "type": "function",
      "constant": true
    },
    {
      "inputs": [
        {
          "internalType": "uint256",
          "name": "tokenId",
          "type": "uint256"
        }
      ],
      "name": "tokenURI",
      "outputs": [
        {
          "internalType": "string",
          "name": "",
          "type": "string"
        }
      ],
      "stateMutability": "view",
      "type": "function",
      "constant": true
    },
    {
      "inputs": [],
      "name": "totalSupply",
      "outputs": [
        {
          "internalType": "uint256",
          "name": "",
          "type": "uint256"
        }
      ],
      "stateMutability": "view",
      "type": "function",
      "constant": true
    },
    {
      "inputs": [
        {
          "internalType": "address",
          "name": "from",
          "type": "address"
        },
        {
          "internalType": "address",
          "name": "to",
          "type": "address"
        },
        {
          "internalType": "uint256",
          "name": "tokenId",
          "type": "uint256"
        }
      ],
      "name": "transferFrom",
      "outputs": [],
      "stateMutability": "nonpayable",
      "type": "function"
    },
    {
      "inputs": [
        {
          "internalType": "address",
          "name": "newOwner",
          "type": "address"
        }
      ],
      "name": "transferOwnership",
      "outputs": [],
      "stateMutability": "nonpayable",
      "type": "function"
    },
    {
      "inputs": [
        {
          "internalType": "address",
          "name": "to",
          "type": "address"
        },
        {
          "internalType": "uint256",
          "name": "tokenId",
          "type": "uint256"
        }
      ],
      "name": "safeMint",
      "outputs": [],
      "stateMutability": "nonpayable",
      "type": "function"
    },
    {
      "inputs": [
        {
          "internalType": "bytes4",
          "name": "interfaceId",
          "type": "bytes4"
        }
      ],
      "name": "supportsInterface",
      "outputs": [
        {
          "internalType": "bool",
          "name": "",
          "type": "bool"
        }
      ],
      "stateMutability": "view",
      "type": "function",
      "constant": true
    },
    {
      "inputs": [
        {
          "internalType": "address",
          "name": "_add",
          "type": "address"
        },
        {
          "internalType": "uint256",
          "name": "_price",
          "type": "uint256"
        },
        {
          "internalType": "string",
          "name": "_title",
          "type": "string"
        },
        {
          "internalType": "string",
          "name": "_imgUrl",
          "type": "string"
        },
        {
          "internalType": "string",
          "name": "_des",
          "type": "string"
        },
        {
          "internalType": "string",
          "name": "_creator",
          "type": "string"
        }
      ],
      "name": "Add_nft",
      "outputs": [],
      "stateMutability": "payable",
      "type": "function",
      "payable": true
    },
    {
      "inputs": [
        {
          "internalType": "uint256",
          "name": "_id",
          "type": "uint256"
        }
      ],
      "name": "NFT_DATA",
      "outputs": [
        {
          "components": [
            {
              "internalType": "uint256",
              "name": "id",
              "type": "uint256"
            },
            {
              "internalType": "address",
              "name": "nftowner",
              "type": "address"
            },
            {
              "internalType": "string",
              "name": "imgUrl",
              "type": "string"
            },
            {
              "internalType": "uint256",
              "name": "nftprice",
              "type": "uint256"
            },
            {
              "internalType": "string",
              "name": "nft_title",
              "type": "string"
            },
            {
              "internalType": "string",
              "name": "nftDescription",
              "type": "string"
            },
            {
              "internalType": "string",
              "name": "nftcreator",
              "type": "string"
            }
          ],
          "internalType": "struct NFT.Detail",
          "name": "",
          "type": "tuple"
        }
      ],
      "stateMutability": "view",
      "type": "function",
      "constant": true
    },
    {
      "inputs": [
        {
          "internalType": "uint256",
          "name": "_id",
          "type": "uint256"
        }
      ],
      "name": "IMG_URL",
      "outputs": [
        {
          "internalType": "string",
          "name": "",
          "type": "string"
        }
      ],
      "stateMutability": "view",
      "type": "function",
      "constant": true
    },
    {
      "inputs": [
        {
          "internalType": "uint256",
          "name": "_ID",
          "type": "uint256"
        },
        {
          "internalType": "uint256",
          "name": "_price",
          "type": "uint256"
        }
      ],
      "name": "SellNFT",
      "outputs": [
        {
          "internalType": "string",
          "name": "",
          "type": "string"
        }
      ],
      "stateMutability": "nonpayable",
      "type": "function"
    },
    {
      "inputs": [
        {
          "internalType": "uint256",
          "name": "_ID",
          "type": "uint256"
        }
      ],
      "name": "RemoveSell",
      "outputs": [],
      "stateMutability": "nonpayable",
      "type": "function"
    },
    {
      "inputs": [],
      "name": "ArrayLengh",
      "outputs": [
        {
          "internalType": "uint256",
          "name": "",
          "type": "uint256"
        }
      ],
      "stateMutability": "view",
      "type": "function",
      "constant": true
    },
    {
      "inputs": [
        {
          "internalType": "uint256",
          "name": "_ID",
          "type": "uint256"
        }
      ],
      "name": "BuyNFT",
      "outputs": [
        {
          "internalType": "string",
          "name": "",
          "type": "string"
        }
      ],
      "stateMutability": "payable",
      "type": "function",
      "payable": true
    },
    {
      "inputs": [
        {
          "internalType": "uint256",
          "name": "_index",
          "type": "uint256"
        }
      ],
      "name": "Offer_ID",
      "outputs": [
        {
          "internalType": "uint256",
          "name": "",
          "type": "uint256"
        }
      ],
      "stateMutability": "view",
      "type": "function",
      "constant": true
    },
    {
      "inputs": [],
      "name": "offerExpired",
      "outputs": [
        {
          "internalType": "bool",
          "name": "",
          "type": "bool"
        }
      ],
      "stateMutability": "view",
      "type": "function",
      "constant": true
    }
  ],
  "bytecode": "0x60806040526001600b553480156200001657600080fd5b506040518060400160405280600781526020017f4d79546f6b656e000000000000000000000000000000000000000000000000008152506040518060400160405280600381526020017f4d544b0000000000000000000000000000000000000000000000000000000000815250816000908162000094919062000417565b508060019081620000a6919062000417565b505050620000c9620000bd620000cf60201b60201c565b620000d760201b60201c565b620004fe565b600033905090565b6000600a60009054906101000a900473ffffffffffffffffffffffffffffffffffffffff16905081600a60006101000a81548173ffffffffffffffffffffffffffffffffffffffff021916908373ffffffffffffffffffffffffffffffffffffffff1602179055508173ffffffffffffffffffffffffffffffffffffffff168173ffffffffffffffffffffffffffffffffffffffff167f8be0079c531659141344cd1fd0a4f28419497f9722a3daafe3b4186f6b6457e060405160405180910390a35050565b600081519050919050565b7f4e487b7100000000000000000000000000000000000000000000000000000000600052604160045260246000fd5b7f4e487b7100000000000000000000000000000000000000000000000000000000600052602260045260246000fd5b600060028204905060018216806200021f57607f821691505b602082108103620002355762000234620001d7565b5b50919050565b60008190508160005260206000209050919050565b60006020601f8301049050919050565b600082821b905092915050565b6000600883026200029f7fffffffffffffffffffffffffffffffffffffffffffffffffffffffffffffffff8262000260565b620002ab868362000260565b95508019841693508086168417925050509392505050565b6000819050919050565b6000819050919050565b6000620002f8620002f2620002ec84620002c3565b620002cd565b620002c3565b9050919050565b6000819050919050565b6200031483620002d7565b6200032c6200032382620002ff565b8484546200026d565b825550505050565b600090565b6200034362000334565b6200035081848462000309565b505050565b5b8181101562000378576200036c60008262000339565b60018101905062000356565b5050565b601f821115620003c75762000391816200023b565b6200039c8462000250565b81016020851015620003ac578190505b620003c4620003bb8562000250565b83018262000355565b50505b505050565b600082821c905092915050565b6000620003ec60001984600802620003cc565b1980831691505092915050565b6000620004078383620003d9565b9150826002028217905092915050565b62000422826200019d565b67ffffffffffffffff8111156200043e576200043d620001a8565b5b6200044a825462000206565b620004578282856200037c565b600060209050601f8311600181146200048f57600084156200047a578287015190505b620004868582620003f9565b865550620004f6565b601f1984166200049f866200023b565b60005b82811015620004c957848901518255600182019150602085019450602081019050620004a2565b86831015620004e95784890151620004e5601f891682620003d9565b8355505b6001600288020188555050505b505050505050565b614fc7806200050e6000396000f3fe6080604052600436106101ee5760003560e01c80636d3bb88e1161010d578063a37365e0116100a0578063d2d5f9341161006f578063d2d5f93414610745578063dd4c85a514610782578063e985e9c5146107bf578063f0ba8440146107fc578063f2fde38b1461083f576101ee565b8063a37365e014610672578063a632f800146106a2578063b88d4fde146106df578063c87b56dd14610708576101ee565b80638da5cb5b116100dc5780638da5cb5b146105ca57806395d89b41146105f5578063a144819414610620578063a22cb46514610649576101ee565b80636d3bb88e1461052057806370a082311461054b578063715018a6146105885780637c6edf071461059f576101ee565b80632a70dcfe116101855780634e461037116101545780634e4610371461042c5780634f6ccce714610469578063547165ac146104a65780636352211e146104e3576101ee565b80632a70dcfe1461035c5780632f745c591461038557806342842e0e146103c2578063453451a4146103eb576101ee565b806318160ddd116101c157806318160ddd146102c15780631c01a61f146102ec57806323b872dd14610308578063271e044e14610331576101ee565b806301ffc9a7146101f357806306fdde0314610230578063081812fc1461025b578063095ea7b314610298575b600080fd5b3480156101ff57600080fd5b5061021a600480360381019061021591906135a6565b610868565b60405161022791906135ee565b60405180910390f35b34801561023c57600080fd5b5061024561087a565b6040516102529190613699565b60405180910390f35b34801561026757600080fd5b50610282600480360381019061027d91906136f1565b61090c565b60405161028f919061375f565b60405180910390f35b3480156102a457600080fd5b506102bf60048036038101906102ba91906137a6565b610952565b005b3480156102cd57600080fd5b506102d6610a69565b6040516102e391906137f5565b60405180910390f35b61030660048036038101906103019190613945565b610a76565b005b34801561031457600080fd5b5061032f600480360381019061032a9190613a42565b610d65565b005b34801561033d57600080fd5b50610346610dc5565b60405161035391906137f5565b60405180910390f35b34801561036857600080fd5b50610383600480360381019061037e91906136f1565b610dcb565b005b34801561039157600080fd5b506103ac60048036038101906103a791906137a6565b610ede565b6040516103b991906137f5565b60405180910390f35b3480156103ce57600080fd5b506103e960048036038101906103e49190613a42565b610f83565b005b3480156103f757600080fd5b50610412600480360381019061040d91906136f1565b610fa3565b604051610423959493929190613a95565b60405180910390f35b34801561043857600080fd5b50610453600480360381019061044e91906136f1565b611006565b60405161046091906137f5565b60405180910390f35b34801561047557600080fd5b50610490600480360381019061048b91906136f1565b61102a565b60405161049d91906137f5565b60405180910390f35b3480156104b257600080fd5b506104cd60048036038101906104c891906136f1565b61109b565b6040516104da9190613699565b60405180910390f35b3480156104ef57600080fd5b5061050a600480360381019061050591906136f1565b611143565b604051610517919061375f565b60405180910390f35b34801561052c57600080fd5b506105356111c9565b60405161054291906137f5565b60405180910390f35b34801561055757600080fd5b50610572600480360381019061056d9190613ae8565b6111d6565b60405161057f91906137f5565b60405180910390f35b34801561059457600080fd5b5061059d61128d565b005b3480156105ab57600080fd5b506105b46112a1565b6040516105c191906135ee565b60405180910390f35b3480156105d657600080fd5b506105df6112ae565b6040516105ec919061375f565b60405180910390f35b34801561060157600080fd5b5061060a6112d8565b6040516106179190613699565b60405180910390f35b34801561062c57600080fd5b50610647600480360381019061064291906137a6565b61136a565b005b34801561065557600080fd5b50610670600480360381019061066b9190613b41565b611380565b005b61068c600480360381019061068791906136f1565b611396565b6040516106999190613699565b60405180910390f35b3480156106ae57600080fd5b506106c960048036038101906106c49190613b81565b611644565b6040516106d69190613699565b60405180910390f35b3480156106eb57600080fd5b5061070660048036038101906107019190613c62565b611899565b005b34801561071457600080fd5b5061072f600480360381019061072a91906136f1565b6118fb565b60405161073c9190613699565b60405180910390f35b34801561075157600080fd5b5061076c600480360381019061076791906136f1565b611963565b6040516107799190613dfe565b60405180910390f35b34801561078e57600080fd5b506107a960048036038101906107a491906136f1565b611c42565b6040516107b691906137f5565b60405180910390f35b3480156107cb57600080fd5b506107e660048036038101906107e19190613e20565b611c6a565b6040516107f391906135ee565b60405180910390f35b34801561080857600080fd5b50610823600480360381019061081e91906136f1565b611cfe565b6040516108369796959493929190613e60565b60405180910390f35b34801561084b57600080fd5b5061086660048036038101906108619190613ae8565b611f80565b005b600061087382612003565b9050919050565b60606000805461088990613f1a565b80601f01602080910402602001604051908101604052809291908181526020018280546108b590613f1a565b80156109025780601f106108d757610100808354040283529160200191610902565b820191906000526020600020905b8154815290600101906020018083116108e557829003601f168201915b5050505050905090565b60006109178261207d565b6004600083815260200190815260200160002060009054906101000a900473ffffffffffffffffffffffffffffffffffffffff169050919050565b600061095d82611143565b90508073ffffffffffffffffffffffffffffffffffffffff168373ffffffffffffffffffffffffffffffffffffffff16036109cd576040517f08c379a00000000000000000000000000000000000000000000000000000000081526004016109c490613fbd565b60405180910390fd5b8073ffffffffffffffffffffffffffffffffffffffff166109ec6120c8565b73ffffffffffffffffffffffffffffffffffffffff161480610a1b5750610a1a81610a156120c8565b611c6a565b5b610a5a576040517f08c379a0000000000000000000000000000000000000000000000000000000008152600401610a519061404f565b60405180910390fd5b610a6483836120d0565b505050565b6000600880549050905090565b610a8286600b54612189565b6040518060e00160405280600b5481526020018773ffffffffffffffffffffffffffffffffffffffff16815260200184815260200186815260200185815260200183815260200182815250600f6000600b5481526020019081526020016000206000820151816000015560208201518160010160006101000a81548173ffffffffffffffffffffffffffffffffffffffff021916908373ffffffffffffffffffffffffffffffffffffffff1602179055506040820151816002019081610b48919061421b565b50606082015181600301556080820151816004019081610b68919061421b565b5060a0820151816005019081610b7e919061421b565b5060c0820151816006019081610b94919061421b565b50905050601060008773ffffffffffffffffffffffffffffffffffffffff1673ffffffffffffffffffffffffffffffffffffffff1681526020019081526020016000206040518060e00160405280600b5481526020018873ffffffffffffffffffffffffffffffffffffffff1681526020018581526020018781526020018681526020018481526020018381525090806001815401808255809150506001900390600052602060002090600702016000909190919091506000820151816000015560208201518160010160006101000a81548173ffffffffffffffffffffffffffffffffffffffff021916908373ffffffffffffffffffffffffffffffffffffffff1602179055506040820151816002019081610cb1919061421b565b50606082015181600301556080820151816004019081610cd1919061421b565b5060a0820151816005019081610ce7919061421b565b5060c0820151816006019081610cfd919061421b565b5050507ffb3238df4a2b58b5670221202a81a47baf87e0fe882581f2b05e4a0198eb4fa0600b548487878686604051610d3b969594939291906142ed565b60405180910390a16001600b6000828254610d569190614399565b92505081905550505050505050565b610d76610d706120c8565b826123a6565b610db5576040517f08c379a0000000000000000000000000000000000000000000000000000000008152600401610dac9061443f565b60405180910390fd5b610dc083838361243b565b505050565b600d5481565b3373ffffffffffffffffffffffffffffffffffffffff16600e600083815260200190815260200160002060010160009054906101000a900473ffffffffffffffffffffffffffffffffffffffff1673ffffffffffffffffffffffffffffffffffffffff1614610e6f576040517f08c379a0000000000000000000000000000000000000000000000000000000008152600401610e66906144ab565b60405180910390fd5b60005b600c80549050811015610eda5781600c8281548110610e9457610e936144cb565b5b906000526020600020015403610ec757600c8181548110610eb857610eb76144cb565b5b90600052602060002001600090555b8080610ed2906144fa565b915050610e72565b5050565b6000610ee9836111d6565b8210610f2a576040517f08c379a0000000000000000000000000000000000000000000000000000000008152600401610f21906145b4565b60405180910390fd5b600660008473ffffffffffffffffffffffffffffffffffffffff1673ffffffffffffffffffffffffffffffffffffffff168152602001908152602001600020600083815260200190815260200160002054905092915050565b610f9e83838360405180602001604052806000815250611899565b505050565b600e6020528060005260406000206000915090508060000154908060010160009054906101000a900473ffffffffffffffffffffffffffffffffffffffff16908060020154908060030160009054906101000a900460ff16908060040154905085565b600c818154811061101657600080fd5b906000526020600020016000915090505481565b6000611034610a69565b8210611075576040517f08c379a000000000000000000000000000000000000000000000000000000000815260040161106c90614646565b60405180910390fd5b60088281548110611089576110886144cb565b5b90600052602060002001549050919050565b6060600f600083815260200190815260200160002060020180546110be90613f1a565b80601f01602080910402602001604051908101604052809291908181526020018280546110ea90613f1a565b80156111375780601f1061110c57610100808354040283529160200191611137565b820191906000526020600020905b81548152906001019060200180831161111a57829003601f168201915b50505050509050919050565b60008061114f83612734565b9050600073ffffffffffffffffffffffffffffffffffffffff168173ffffffffffffffffffffffffffffffffffffffff16036111c0576040517f08c379a00000000000000000000000000000000000000000000000000000000081526004016111b7906146b2565b60405180910390fd5b80915050919050565b6000600c80549050905090565b60008073ffffffffffffffffffffffffffffffffffffffff168273ffffffffffffffffffffffffffffffffffffffff1603611246576040517f08c379a000000000000000000000000000000000000000000000000000000000815260040161123d90614744565b60405180910390fd5b600360008373ffffffffffffffffffffffffffffffffffffffff1673ffffffffffffffffffffffffffffffffffffffff168152602001908152602001600020549050919050565b611295612771565b61129f60006127ef565b565b6000600d54421015905090565b6000600a60009054906101000a900473ffffffffffffffffffffffffffffffffffffffff16905090565b6060600180546112e790613f1a565b80601f016020809104026020016040519081016040528092919081815260200182805461131390613f1a565b80156113605780601f1061133557610100808354040283529160200191611360565b820191906000526020600020905b81548152906001019060200180831161134357829003601f168201915b5050505050905090565b611372612771565b61137c82826128b5565b5050565b61139261138b6120c8565b83836128d3565b5050565b606042600d5410156113dd576040517f08c379a00000000000000000000000000000000000000000000000000000000081526004016113d4906147b0565b60405180910390fd5b42600d541161147b576000600e600084815260200190815260200160002060030160006101000a81548160ff021916908315150217905550600c60008154811061142a576114296144cb565b5b906000526020600020016000905560006040518060400160405280601381526020017f54686973204f6666657220697320656e6465640000000000000000000000000081525090508091505061163f565b6001600e600084815260200190815260200160002060030160006101000a81548160ff0219169083151502179055506114b433836120d0565b6000600f600084815260200190815260200160002060010160009054906101000a900473ffffffffffffffffffffffffffffffffffffffff1690506114fa813385610f83565b8073ffffffffffffffffffffffffffffffffffffffff166108fc349081150290604051600060405180830381858888f19350505050158015611540573d6000803e3d6000fd5b5033600f600085815260200190815260200160002060010160006101000a81548173ffffffffffffffffffffffffffffffffffffffff021916908373ffffffffffffffffffffffffffffffffffffffff160217905550600e600084815260200190815260200160002060020154600f6000858152602001908152602001600020600301819055507ffa37eb71a6a7a3ee16dabe9d2ccbe2a6ffeae205c704ad48f63ba954424bf2058133600e6000878152602001908152602001600020600201544260405161161294939291906147d0565b60405180910390a1600c60008154811061162f5761162e6144cb565b5b9060005260206000200160009055505b919050565b606061164f83612a3f565b61168e576040517f08c379a000000000000000000000000000000000000000000000000000000000815260040161168590614861565b60405180910390fd5b600f600084815260200190815260200160002060010160009054906101000a900473ffffffffffffffffffffffffffffffffffffffff1673ffffffffffffffffffffffffffffffffffffffff163373ffffffffffffffffffffffffffffffffffffffff1614611732576040517f08c379a0000000000000000000000000000000000000000000000000000000008152600401611729906148cd565b60405180910390fd5b6040518060a001604052808481526020013373ffffffffffffffffffffffffffffffffffffffff16815260200183815260200160011515815260200142815250600e60008581526020019081526020016000206000820151816000015560208201518160010160006101000a81548173ffffffffffffffffffffffffffffffffffffffff021916908373ffffffffffffffffffffffffffffffffffffffff1602179055506040820151816002015560608201518160030160006101000a81548160ff021916908315150217905550608082015181600401559050506102584261181b9190614399565b600d8190555061182b30846120d0565b600c8390806001815401808255809150506001900390600052602060002001600090919091909150557fea92dfa870170e402c50cf863a2b8b9a4429a524f5a0932b46c10de5560e2c42338342600d5460405161188b94939291906148ed565b60405180910390a192915050565b6118aa6118a46120c8565b836123a6565b6118e9576040517f08c379a00000000000000000000000000000000000000000000000000000000081526004016118e09061443f565b60405180910390fd5b6118f584848484612a80565b50505050565b60606119068261207d565b6000611910612adc565b90506000815111611930576040518060200160405280600081525061195b565b8061193a84612af3565b60405160200161194b92919061496e565b6040516020818303038152906040525b915050919050565b61196b6134e7565b600f60008381526020019081526020016000206040518060e0016040529081600082015481526020016001820160009054906101000a900473ffffffffffffffffffffffffffffffffffffffff1673ffffffffffffffffffffffffffffffffffffffff1673ffffffffffffffffffffffffffffffffffffffff1681526020016002820180546119f990613f1a565b80601f0160208091040260200160405190810160405280929190818152602001828054611a2590613f1a565b8015611a725780601f10611a4757610100808354040283529160200191611a72565b820191906000526020600020905b815481529060010190602001808311611a5557829003601f168201915b5050505050815260200160038201548152602001600482018054611a9590613f1a565b80601f0160208091040260200160405190810160405280929190818152602001828054611ac190613f1a565b8015611b0e5780601f10611ae357610100808354040283529160200191611b0e565b820191906000526020600020905b815481529060010190602001808311611af157829003601f168201915b50505050508152602001600582018054611b2790613f1a565b80601f0160208091040260200160405190810160405280929190818152602001828054611b5390613f1a565b8015611ba05780601f10611b7557610100808354040283529160200191611ba0565b820191906000526020600020905b815481529060010190602001808311611b8357829003601f168201915b50505050508152602001600682018054611bb990613f1a565b80601f0160208091040260200160405190810160405280929190818152602001828054611be590613f1a565b8015611c325780601f10611c0757610100808354040283529160200191611c32565b820191906000526020600020905b815481529060010190602001808311611c1557829003601f168201915b5050505050815250509050919050565b6000600c8281548110611c5857611c576144cb565b5b90600052602060002001549050919050565b6000600560008473ffffffffffffffffffffffffffffffffffffffff1673ffffffffffffffffffffffffffffffffffffffff16815260200190815260200160002060008373ffffffffffffffffffffffffffffffffffffffff1673ffffffffffffffffffffffffffffffffffffffff16815260200190815260200160002060009054906101000a900460ff16905092915050565b600f6020528060005260406000206000915090508060000154908060010160009054906101000a900473ffffffffffffffffffffffffffffffffffffffff1690806002018054611d4d90613f1a565b80601f0160208091040260200160405190810160405280929190818152602001828054611d7990613f1a565b8015611dc65780601f10611d9b57610100808354040283529160200191611dc6565b820191906000526020600020905b815481529060010190602001808311611da957829003601f168201915b505050505090806003015490806004018054611de190613f1a565b80601f0160208091040260200160405190810160405280929190818152602001828054611e0d90613f1a565b8015611e5a5780601f10611e2f57610100808354040283529160200191611e5a565b820191906000526020600020905b815481529060010190602001808311611e3d57829003601f168201915b505050505090806005018054611e6f90613f1a565b80601f0160208091040260200160405190810160405280929190818152602001828054611e9b90613f1a565b8015611ee85780601f10611ebd57610100808354040283529160200191611ee8565b820191906000526020600020905b815481529060010190602001808311611ecb57829003601f168201915b505050505090806006018054611efd90613f1a565b80601f0160208091040260200160405190810160405280929190818152602001828054611f2990613f1a565b8015611f765780601f10611f4b57610100808354040283529160200191611f76565b820191906000526020600020905b815481529060010190602001808311611f5957829003601f168201915b5050505050905087565b611f88612771565b600073ffffffffffffffffffffffffffffffffffffffff168173ffffffffffffffffffffffffffffffffffffffff1603611ff7576040517f08c379a0000000000000000000000000000000000000000000000000000000008152600401611fee90614a04565b60405180910390fd5b612000816127ef565b50565b60007f780e9d63000000000000000000000000000000000000000000000000000000007bffffffffffffffffffffffffffffffffffffffffffffffffffffffff1916827bffffffffffffffffffffffffffffffffffffffffffffffffffffffff19161480612076575061207582612bc1565b5b9050919050565b61208681612a3f565b6120c5576040517f08c379a00000000000000000000000000000000000000000000000000000000081526004016120bc906146b2565b60405180910390fd5b50565b600033905090565b816004600083815260200190815260200160002060006101000a81548173ffffffffffffffffffffffffffffffffffffffff021916908373ffffffffffffffffffffffffffffffffffffffff160217905550808273ffffffffffffffffffffffffffffffffffffffff1661214383611143565b73ffffffffffffffffffffffffffffffffffffffff167f8c5be1e5ebec7d5bd14f71427d1e84f3dd0314c0f7b2291e5b200ac8c7c3b92560405160405180910390a45050565b600073ffffffffffffffffffffffffffffffffffffffff168273ffffffffffffffffffffffffffffffffffffffff16036121f8576040517f08c379a00000000000000000000000000000000000000000000000000000000081526004016121ef90614a70565b60405180910390fd5b61220181612a3f565b15612241576040517f08c379a000000000000000000000000000000000000000000000000000000000815260040161223890614adc565b60405180910390fd5b61224f600083836001612ca3565b61225881612a3f565b15612298576040517f08c379a000000000000000000000000000000000000000000000000000000000815260040161228f90614adc565b60405180910390fd5b6001600360008473ffffffffffffffffffffffffffffffffffffffff1673ffffffffffffffffffffffffffffffffffffffff16815260200190815260200160002060008282540192505081905550816002600083815260200190815260200160002060006101000a81548173ffffffffffffffffffffffffffffffffffffffff021916908373ffffffffffffffffffffffffffffffffffffffff160217905550808273ffffffffffffffffffffffffffffffffffffffff16600073ffffffffffffffffffffffffffffffffffffffff167fddf252ad1be2c89b69c2b068fc378daa952ba7f163c4a11628f55a4df523b3ef60405160405180910390a46123a2600083836001612cb5565b5050565b6000806123b283611143565b90508073ffffffffffffffffffffffffffffffffffffffff168473ffffffffffffffffffffffffffffffffffffffff1614806123f457506123f38185611c6a565b5b8061243257508373ffffffffffffffffffffffffffffffffffffffff1661241a8461090c565b73ffffffffffffffffffffffffffffffffffffffff16145b91505092915050565b8273ffffffffffffffffffffffffffffffffffffffff1661245b82611143565b73ffffffffffffffffffffffffffffffffffffffff16146124b1576040517f08c379a00000000000000000000000000000000000000000000000000000000081526004016124a890614b6e565b60405180910390fd5b600073ffffffffffffffffffffffffffffffffffffffff168273ffffffffffffffffffffffffffffffffffffffff1603612520576040517f08c379a000000000000000000000000000000000000000000000000000000000815260040161251790614c00565b60405180910390fd5b61252d8383836001612ca3565b8273ffffffffffffffffffffffffffffffffffffffff1661254d82611143565b73ffffffffffffffffffffffffffffffffffffffff16146125a3576040517f08c379a000000000000000000000000000000000000000000000000000000000815260040161259a90614b6e565b60405180910390fd5b6004600082815260200190815260200160002060006101000a81549073ffffffffffffffffffffffffffffffffffffffff02191690556001600360008573ffffffffffffffffffffffffffffffffffffffff1673ffffffffffffffffffffffffffffffffffffffff168152602001908152602001600020600082825403925050819055506001600360008473ffffffffffffffffffffffffffffffffffffffff1673ffffffffffffffffffffffffffffffffffffffff16815260200190815260200160002060008282540192505081905550816002600083815260200190815260200160002060006101000a81548173ffffffffffffffffffffffffffffffffffffffff021916908373ffffffffffffffffffffffffffffffffffffffff160217905550808273ffffffffffffffffffffffffffffffffffffffff168473ffffffffffffffffffffffffffffffffffffffff167fddf252ad1be2c89b69c2b068fc378daa952ba7f163c4a11628f55a4df523b3ef60405160405180910390a461272f8383836001612cb5565b505050565b60006002600083815260200190815260200160002060009054906101000a900473ffffffffffffffffffffffffffffffffffffffff169050919050565b6127796120c8565b73ffffffffffffffffffffffffffffffffffffffff166127976112ae565b73ffffffffffffffffffffffffffffffffffffffff16146127ed576040517f08c379a00000000000000000000000000000000000000000000000000000000081526004016127e490614c6c565b60405180910390fd5b565b6000600a60009054906101000a900473ffffffffffffffffffffffffffffffffffffffff16905081600a60006101000a81548173ffffffffffffffffffffffffffffffffffffffff021916908373ffffffffffffffffffffffffffffffffffffffff1602179055508173ffffffffffffffffffffffffffffffffffffffff168173ffffffffffffffffffffffffffffffffffffffff167f8be0079c531659141344cd1fd0a4f28419497f9722a3daafe3b4186f6b6457e060405160405180910390a35050565b6128cf828260405180602001604052806000815250612cbb565b5050565b8173ffffffffffffffffffffffffffffffffffffffff168373ffffffffffffffffffffffffffffffffffffffff1603612941576040517f08c379a000000000000000000000000000000000000000000000000000000000815260040161293890614cd8565b60405180910390fd5b80600560008573ffffffffffffffffffffffffffffffffffffffff1673ffffffffffffffffffffffffffffffffffffffff16815260200190815260200160002060008473ffffffffffffffffffffffffffffffffffffffff1673ffffffffffffffffffffffffffffffffffffffff16815260200190815260200160002060006101000a81548160ff0219169083151502179055508173ffffffffffffffffffffffffffffffffffffffff168373ffffffffffffffffffffffffffffffffffffffff167f17307eab39ab6107e8899845ad3d59bd9653f200f220920489ca2b5937696c3183604051612a3291906135ee565b60405180910390a3505050565b60008073ffffffffffffffffffffffffffffffffffffffff16612a6183612734565b73ffffffffffffffffffffffffffffffffffffffff1614159050919050565b612a8b84848461243b565b612a9784848484612d16565b612ad6576040517f08c379a0000000000000000000000000000000000000000000000000000000008152600401612acd90614d6a565b60405180910390fd5b50505050565b606060405180602001604052806000815250905090565b606060006001612b0284612e9d565b01905060008167ffffffffffffffff811115612b2157612b2061381a565b5b6040519080825280601f01601f191660200182016040528015612b535781602001600182028036833780820191505090505b509050600082602001820190505b600115612bb6578080600190039150507f3031323334353637383961626364656600000000000000000000000000000000600a86061a8153600a8581612baa57612ba9614d8a565b5b04945060008503612b61575b819350505050919050565b60007f80ac58cd000000000000000000000000000000000000000000000000000000007bffffffffffffffffffffffffffffffffffffffffffffffffffffffff1916827bffffffffffffffffffffffffffffffffffffffffffffffffffffffff19161480612c8c57507f5b5e139f000000000000000000000000000000000000000000000000000000007bffffffffffffffffffffffffffffffffffffffffffffffffffffffff1916827bffffffffffffffffffffffffffffffffffffffffffffffffffffffff1916145b80612c9c5750612c9b82612ff0565b5b9050919050565b612caf8484848461305a565b50505050565b50505050565b612cc58383612189565b612cd26000848484612d16565b612d11576040517f08c379a0000000000000000000000000000000000000000000000000000000008152600401612d0890614d6a565b60405180910390fd5b505050565b6000612d378473ffffffffffffffffffffffffffffffffffffffff166131b8565b15612e90578373ffffffffffffffffffffffffffffffffffffffff1663150b7a02612d606120c8565b8786866040518563ffffffff1660e01b8152600401612d829493929190614e0e565b6020604051808303816000875af1925050508015612dbe57506040513d601f19601f82011682018060405250810190612dbb9190614e6f565b60015b612e40573d8060008114612dee576040519150601f19603f3d011682016040523d82523d6000602084013e612df3565b606091505b506000815103612e38576040517f08c379a0000000000000000000000000000000000000000000000000000000008152600401612e2f90614d6a565b60405180910390fd5b805181602001fd5b63150b7a0260e01b7bffffffffffffffffffffffffffffffffffffffffffffffffffffffff1916817bffffffffffffffffffffffffffffffffffffffffffffffffffffffff191614915050612e95565b600190505b949350505050565b600080600090507a184f03e93ff9f4daa797ed6e38ed64bf6a1f0100000000000000008310612efb577a184f03e93ff9f4daa797ed6e38ed64bf6a1f0100000000000000008381612ef157612ef0614d8a565b5b0492506040810190505b6d04ee2d6d415b85acef81000000008310612f38576d04ee2d6d415b85acef81000000008381612f2e57612f2d614d8a565b5b0492506020810190505b662386f26fc100008310612f6757662386f26fc100008381612f5d57612f5c614d8a565b5b0492506010810190505b6305f5e1008310612f90576305f5e1008381612f8657612f85614d8a565b5b0492506008810190505b6127108310612fb5576127108381612fab57612faa614d8a565b5b0492506004810190505b60648310612fd85760648381612fce57612fcd614d8a565b5b0492506002810190505b600a8310612fe7576001810190505b80915050919050565b60007f01ffc9a7000000000000000000000000000000000000000000000000000000007bffffffffffffffffffffffffffffffffffffffffffffffffffffffff1916827bffffffffffffffffffffffffffffffffffffffffffffffffffffffff1916149050919050565b613066848484846131db565b60018111156130aa576040517f08c379a00000000000000000000000000000000000000000000000000000000081526004016130a190614f0e565b60405180910390fd5b6000829050600073ffffffffffffffffffffffffffffffffffffffff168573ffffffffffffffffffffffffffffffffffffffff16036130f1576130ec816131e1565b613130565b8373ffffffffffffffffffffffffffffffffffffffff168573ffffffffffffffffffffffffffffffffffffffff161461312f5761312e858261322a565b5b5b600073ffffffffffffffffffffffffffffffffffffffff168473ffffffffffffffffffffffffffffffffffffffff16036131725761316d81613397565b6131b1565b8473ffffffffffffffffffffffffffffffffffffffff168473ffffffffffffffffffffffffffffffffffffffff16146131b0576131af8482613468565b5b5b5050505050565b6000808273ffffffffffffffffffffffffffffffffffffffff163b119050919050565b50505050565b6008805490506009600083815260200190815260200160002081905550600881908060018154018082558091505060019003906000526020600020016000909190919091505550565b60006001613237846111d6565b6132419190614f2e565b9050600060076000848152602001908152602001600020549050818114613326576000600660008673ffffffffffffffffffffffffffffffffffffffff1673ffffffffffffffffffffffffffffffffffffffff168152602001908152602001600020600084815260200190815260200160002054905080600660008773ffffffffffffffffffffffffffffffffffffffff1673ffffffffffffffffffffffffffffffffffffffff168152602001908152602001600020600084815260200190815260200160002081905550816007600083815260200190815260200160002081905550505b6007600084815260200190815260200160002060009055600660008573ffffffffffffffffffffffffffffffffffffffff1673ffffffffffffffffffffffffffffffffffffffff16815260200190815260200160002060008381526020019081526020016000206000905550505050565b600060016008805490506133ab9190614f2e565b90506000600960008481526020019081526020016000205490506000600883815481106133db576133da6144cb565b5b9060005260206000200154905080600883815481106133fd576133fc6144cb565b5b90600052602060002001819055508160096000838152602001908152602001600020819055506009600085815260200190815260200160002060009055600880548061344c5761344b614f62565b5b6001900381819060005260206000200160009055905550505050565b6000613473836111d6565b905081600660008573ffffffffffffffffffffffffffffffffffffffff1673ffffffffffffffffffffffffffffffffffffffff168152602001908152602001600020600083815260200190815260200160002081905550806007600084815260200190815260200160002081905550505050565b6040518060e0016040528060008152602001600073ffffffffffffffffffffffffffffffffffffffff16815260200160608152602001600081526020016060815260200160608152602001606081525090565b6000604051905090565b600080fd5b600080fd5b60007fffffffff0000000000000000000000000000000000000000000000000000000082169050919050565b6135838161354e565b811461358e57600080fd5b50565b6000813590506135a08161357a565b92915050565b6000602082840312156135bc576135bb613544565b5b60006135ca84828501613591565b91505092915050565b60008115159050919050565b6135e8816135d3565b82525050565b600060208201905061360360008301846135df565b92915050565b600081519050919050565b600082825260208201905092915050565b60005b83811015613643578082015181840152602081019050613628565b60008484015250505050565b6000601f19601f8301169050919050565b600061366b82613609565b6136758185613614565b9350613685818560208601613625565b61368e8161364f565b840191505092915050565b600060208201905081810360008301526136b38184613660565b905092915050565b6000819050919050565b6136ce816136bb565b81146136d957600080fd5b50565b6000813590506136eb816136c5565b92915050565b60006020828403121561370757613706613544565b5b6000613715848285016136dc565b91505092915050565b600073ffffffffffffffffffffffffffffffffffffffff82169050919050565b60006137498261371e565b9050919050565b6137598161373e565b82525050565b60006020820190506137746000830184613750565b92915050565b6137838161373e565b811461378e57600080fd5b50565b6000813590506137a08161377a565b92915050565b600080604083850312156137bd576137bc613544565b5b60006137cb85828601613791565b92505060206137dc858286016136dc565b9150509250929050565b6137ef816136bb565b82525050565b600060208201905061380a60008301846137e6565b92915050565b600080fd5b600080fd5b7f4e487b7100000000000000000000000000000000000000000000000000000000600052604160045260246000fd5b6138528261364f565b810181811067ffffffffffffffff821117156138715761387061381a565b5b80604052505050565b600061388461353a565b90506138908282613849565b919050565b600067ffffffffffffffff8211156138b0576138af61381a565b5b6138b98261364f565b9050602081019050919050565b82818337600083830152505050565b60006138e86138e384613895565b61387a565b90508281526020810184848401111561390457613903613815565b5b61390f8482856138c6565b509392505050565b600082601f83011261392c5761392b613810565b5b813561393c8482602086016138d5565b91505092915050565b60008060008060008060c0878903121561396257613961613544565b5b600061397089828a01613791565b965050602061398189828a016136dc565b955050604087013567ffffffffffffffff8111156139a2576139a1613549565b5b6139ae89828a01613917565b945050606087013567ffffffffffffffff8111156139cf576139ce613549565b5b6139db89828a01613917565b935050608087013567ffffffffffffffff8111156139fc576139fb613549565b5b613a0889828a01613917565b92505060a087013567ffffffffffffffff811115613a2957613a28613549565b5b613a3589828a01613917565b9150509295509295509295565b600080600060608486031215613a5b57613a5a613544565b5b6000613a6986828701613791565b9350506020613a7a86828701613791565b9250506040613a8b868287016136dc565b9150509250925092565b600060a082019050613aaa60008301886137e6565b613ab76020830187613750565b613ac460408301866137e6565b613ad160608301856135df565b613ade60808301846137e6565b9695505050505050565b600060208284031215613afe57613afd613544565b5b6000613b0c84828501613791565b91505092915050565b613b1e816135d3565b8114613b2957600080fd5b50565b600081359050613b3b81613b15565b92915050565b60008060408385031215613b5857613b57613544565b5b6000613b6685828601613791565b9250506020613b7785828601613b2c565b9150509250929050565b60008060408385031215613b9857613b97613544565b5b6000613ba6858286016136dc565b9250506020613bb7858286016136dc565b9150509250929050565b600067ffffffffffffffff821115613bdc57613bdb61381a565b5b613be58261364f565b9050602081019050919050565b6000613c05613c0084613bc1565b61387a565b905082815260208101848484011115613c2157613c20613815565b5b613c2c8482856138c6565b509392505050565b600082601f830112613c4957613c48613810565b5b8135613c59848260208601613bf2565b91505092915050565b60008060008060808587031215613c7c57613c7b613544565b5b6000613c8a87828801613791565b9450506020613c9b87828801613791565b9350506040613cac878288016136dc565b925050606085013567ffffffffffffffff811115613ccd57613ccc613549565b5b613cd987828801613c34565b91505092959194509250565b613cee816136bb565b82525050565b613cfd8161373e565b82525050565b600082825260208201905092915050565b6000613d1f82613609565b613d298185613d03565b9350613d39818560208601613625565b613d428161364f565b840191505092915050565b600060e083016000830151613d656000860182613ce5565b506020830151613d786020860182613cf4565b5060408301518482036040860152613d908282613d14565b9150506060830151613da56060860182613ce5565b5060808301518482036080860152613dbd8282613d14565b91505060a083015184820360a0860152613dd78282613d14565b91505060c083015184820360c0860152613df18282613d14565b9150508091505092915050565b60006020820190508181036000830152613e188184613d4d565b905092915050565b60008060408385031215613e3757613e36613544565b5b6000613e4585828601613791565b9250506020613e5685828601613791565b9150509250929050565b600060e082019050613e75600083018a6137e6565b613e826020830189613750565b8181036040830152613e948188613660565b9050613ea360608301876137e6565b8181036080830152613eb58186613660565b905081810360a0830152613ec98185613660565b905081810360c0830152613edd8184613660565b905098975050505050505050565b7f4e487b7100000000000000000000000000000000000000000000000000000000600052602260045260246000fd5b60006002820490506001821680613f3257607f821691505b602082108103613f4557613f44613eeb565b5b50919050565b7f4552433732313a20617070726f76616c20746f2063757272656e74206f776e6560008201527f7200000000000000000000000000000000000000000000000000000000000000602082015250565b6000613fa7602183613614565b9150613fb282613f4b565b604082019050919050565b60006020820190508181036000830152613fd681613f9a565b9050919050565b7f4552433732313a20617070726f76652063616c6c6572206973206e6f7420746f60008201527f6b656e206f776e6572206f7220617070726f76656420666f7220616c6c000000602082015250565b6000614039603d83613614565b915061404482613fdd565b604082019050919050565b600060208201905081810360008301526140688161402c565b9050919050565b60008190508160005260206000209050919050565b60006020601f8301049050919050565b600082821b905092915050565b6000600883026140d17fffffffffffffffffffffffffffffffffffffffffffffffffffffffffffffffff82614094565b6140db8683614094565b95508019841693508086168417925050509392505050565b6000819050919050565b600061411861411361410e846136bb565b6140f3565b6136bb565b9050919050565b6000819050919050565b614132836140fd565b61414661413e8261411f565b8484546140a1565b825550505050565b600090565b61415b61414e565b614166818484614129565b505050565b5b8181101561418a5761417f600082614153565b60018101905061416c565b5050565b601f8211156141cf576141a08161406f565b6141a984614084565b810160208510156141b8578190505b6141cc6141c485614084565b83018261416b565b50505b505050565b600082821c905092915050565b60006141f2600019846008026141d4565b1980831691505092915050565b600061420b83836141e1565b9150826002028217905092915050565b61422482613609565b67ffffffffffffffff81111561423d5761423c61381a565b5b6142478254613f1a565b61425282828561418e565b600060209050601f8311600181146142855760008415614273578287015190505b61427d85826141ff565b8655506142e5565b601f1984166142938661406f565b60005b828110156142bb57848901518255600182019150602085019450602081019050614296565b868310156142d857848901516142d4601f8916826141e1565b8355505b6001600288020188555050505b505050505050565b600060c08201905061430260008301896137e6565b81810360208301526143148188613660565b905061432360408301876137e6565b81810360608301526143358186613660565b905081810360808301526143498185613660565b905081810360a083015261435d8184613660565b9050979650505050505050565b7f4e487b7100000000000000000000000000000000000000000000000000000000600052601160045260246000fd5b60006143a4826136bb565b91506143af836136bb565b92508282019050808211156143c7576143c661436a565b5b92915050565b7f4552433732313a2063616c6c6572206973206e6f7420746f6b656e206f776e6560008201527f72206f7220617070726f76656400000000000000000000000000000000000000602082015250565b6000614429602d83613614565b9150614434826143cd565b604082019050919050565b600060208201905081810360008301526144588161441c565b9050919050565b7f596f757220417265204e6f74204f776e6572204f662054686973204e46542000600082015250565b6000614495601f83613614565b91506144a08261445f565b602082019050919050565b600060208201905081810360008301526144c481614488565b9050919050565b7f4e487b7100000000000000000000000000000000000000000000000000000000600052603260045260246000fd5b6000614505826136bb565b91507fffffffffffffffffffffffffffffffffffffffffffffffffffffffffffffffff82036145375761453661436a565b5b600182019050919050565b7f455243373231456e756d657261626c653a206f776e657220696e646578206f7560008201527f74206f6620626f756e6473000000000000000000000000000000000000000000602082015250565b600061459e602b83613614565b91506145a982614542565b604082019050919050565b600060208201905081810360008301526145cd81614591565b9050919050565b7f455243373231456e756d657261626c653a20676c6f62616c20696e646578206f60008201527f7574206f6620626f756e64730000000000000000000000000000000000000000602082015250565b6000614630602c83613614565b915061463b826145d4565b604082019050919050565b6000602082019050818103600083015261465f81614623565b9050919050565b7f4552433732313a20696e76616c696420746f6b656e2049440000000000000000600082015250565b600061469c601883613614565b91506146a782614666565b602082019050919050565b600060208201905081810360008301526146cb8161468f565b9050919050565b7f4552433732313a2061646472657373207a65726f206973206e6f74206120766160008201527f6c6964206f776e65720000000000000000000000000000000000000000000000602082015250565b600061472e602983613614565b9150614739826146d2565b604082019050919050565b6000602082019050818103600083015261475d81614721565b9050919050565b7f4f666665722048617320456e6465640000000000000000000000000000000000600082015250565b600061479a600f83613614565b91506147a582614764565b602082019050919050565b600060208201905081810360008301526147c98161478d565b9050919050565b60006080820190506147e56000830187613750565b6147f26020830186613750565b6147ff60408301856137e6565b61480c60608301846137e6565b95945050505050565b7f4e465420646f6573206e6f742065786973740000000000000000000000000000600082015250565b600061484b601283613614565b915061485682614815565b602082019050919050565b6000602082019050818103600083015261487a8161483e565b9050919050565b7f596f7520617265206e6f74206f776e6572206f662074686973206e6674000000600082015250565b60006148b7601d83613614565b91506148c282614881565b602082019050919050565b600060208201905081810360008301526148e6816148aa565b9050919050565b60006080820190506149026000830187613750565b61490f60208301866137e6565b61491c60408301856137e6565b61492960608301846137e6565b95945050505050565b600081905092915050565b600061494882613609565b6149528185614932565b9350614962818560208601613625565b80840191505092915050565b600061497a828561493d565b9150614986828461493d565b91508190509392505050565b7f4f776e61626c653a206e6577206f776e657220697320746865207a65726f206160008201527f6464726573730000000000000000000000000000000000000000000000000000602082015250565b60006149ee602683613614565b91506149f982614992565b604082019050919050565b60006020820190508181036000830152614a1d816149e1565b9050919050565b7f4552433732313a206d696e7420746f20746865207a65726f2061646472657373600082015250565b6000614a5a602083613614565b9150614a6582614a24565b602082019050919050565b60006020820190508181036000830152614a8981614a4d565b9050919050565b7f4552433732313a20746f6b656e20616c7265616479206d696e74656400000000600082015250565b6000614ac6601c83613614565b9150614ad182614a90565b602082019050919050565b60006020820190508181036000830152614af581614ab9565b9050919050565b7f4552433732313a207472616e736665722066726f6d20696e636f72726563742060008201527f6f776e6572000000000000000000000000000000000000000000000000000000602082015250565b6000614b58602583613614565b9150614b6382614afc565b604082019050919050565b60006020820190508181036000830152614b8781614b4b565b9050919050565b7f4552433732313a207472616e7366657220746f20746865207a65726f2061646460008201527f7265737300000000000000000000000000000000000000000000000000000000602082015250565b6000614bea602483613614565b9150614bf582614b8e565b604082019050919050565b60006020820190508181036000830152614c1981614bdd565b9050919050565b7f4f776e61626c653a2063616c6c6572206973206e6f7420746865206f776e6572600082015250565b6000614c56602083613614565b9150614c6182614c20565b602082019050919050565b60006020820190508181036000830152614c8581614c49565b9050919050565b7f4552433732313a20617070726f766520746f2063616c6c657200000000000000600082015250565b6000614cc2601983613614565b9150614ccd82614c8c565b602082019050919050565b60006020820190508181036000830152614cf181614cb5565b9050919050565b7f4552433732313a207472616e7366657220746f206e6f6e20455243373231526560008201527f63656976657220696d706c656d656e7465720000000000000000000000000000602082015250565b6000614d54603283613614565b9150614d5f82614cf8565b604082019050919050565b60006020820190508181036000830152614d8381614d47565b9050919050565b7f4e487b7100000000000000000000000000000000000000000000000000000000600052601260045260246000fd5b600081519050919050565b600082825260208201905092915050565b6000614de082614db9565b614dea8185614dc4565b9350614dfa818560208601613625565b614e038161364f565b840191505092915050565b6000608082019050614e236000830187613750565b614e306020830186613750565b614e3d60408301856137e6565b8181036060830152614e4f8184614dd5565b905095945050505050565b600081519050614e698161357a565b92915050565b600060208284031215614e8557614e84613544565b5b6000614e9384828501614e5a565b91505092915050565b7f455243373231456e756d657261626c653a20636f6e736563757469766520747260008201527f616e7366657273206e6f7420737570706f727465640000000000000000000000602082015250565b6000614ef8603583613614565b9150614f0382614e9c565b604082019050919050565b60006020820190508181036000830152614f2781614eeb565b9050919050565b6000614f39826136bb565b9150614f44836136bb565b9250828203905081811115614f5c57614f5b61436a565b5b92915050565b7f4e487b7100000000000000000000000000000000000000000000000000000000600052603160045260246000fdfea2646970667358221220a768bb5dab28e1eea7597886a6313296df992e4f0ddf3d01772493f06369583264736f6c63430008130033",
  "immutableReferences": {},
  "source": "// SPDX-License-Identifier: MIT\npragma solidity ^0.8.9;\n\nimport \"@openzeppelin/contracts/token/ERC721/ERC721.sol\";\nimport \"@openzeppelin/contracts/token/ERC721/extensions/ERC721Enumerable.sol\";\nimport \"@openzeppelin/contracts/access/Ownable.sol\";\n\ncontract NFT is ERC721, ERC721Enumerable, Ownable {\n    constructor() ERC721(\"MyToken\", \"MTK\") {}\n\n    uint NFT_ID = 1;\n    struct Detail {\n        uint id;    \n        address nftowner;\n        string imgUrl;\n        uint nftprice;\n        string nft_title;\n        string nftDescription;\n        string nftcreator;\n    }\n\n    struct sellnft {\n        uint Id;\n        address NFTOwner;\n        uint Price;\n        bool is_Offer;\n        uint OfferEnd; \n    }\n\n    uint[] public NFTId;\n    uint256 public offerExpirationTime;\n\n    mapping(uint=>sellnft) public sellData;\n    mapping(uint=>Detail) public data;\n    mapping(address=>Detail[]) userdata;\n\n    event AddNFT(uint NFT_ID,string imgUrl,uint nftprice,string nft_title,string nftDescription,string nftcreator);\n    event sellNFT(address nftowner,uint offerPrice,uint offercreatedtime,uint offerended);\n    event buynft(address nftowner,address buyaddress,uint buyprice,uint buytime);\n    // uint256 public constant MINT_PRICE = 0.05 ether;\n\n\n    function safeMint(address to, uint256 tokenId) public onlyOwner {\n        _safeMint(to, tokenId);\n    }\n\n    // The following functions are overrides required by Solidity.\n\n    function _beforeTokenTransfer(address from, address to, uint256 tokenId, uint256 batchSize)\n        internal\n        override(ERC721, ERC721Enumerable)\n    {\n        super._beforeTokenTransfer(from, to, tokenId, batchSize);\n    }\n\n    function supportsInterface(bytes4 interfaceId)\n        public\n        view\n        override(ERC721, ERC721Enumerable)\n        returns (bool)\n    {\n        return super.supportsInterface(interfaceId);\n    }\n\n    function Add_nft (address _add, uint _price,string memory _title , string memory _imgUrl,string memory _des,string memory _creator ) public payable {\n        _mint(_add,NFT_ID);\n        data[NFT_ID] = Detail(NFT_ID,_add,_imgUrl,_price,_title,_des,_creator);\n        userdata[_add].push(Detail(NFT_ID,_add,_imgUrl,_price,_title,_des,_creator));\n        emit AddNFT(NFT_ID,_imgUrl,_price,_title,_des,_creator);\n        NFT_ID += 1;\n    }\n\n    function NFT_DATA (uint _id) public view returns(Detail memory){\n        return data[_id];\n    }\n\n\n    function IMG_URL (uint _id) public view returns(string memory){\n        return data[_id].imgUrl;\n    }\n\n    function SellNFT( uint _ID,uint _price) public returns(string memory ) {\n        require(_exists(_ID), \"NFT does not exist\");\n        // address nft_O = data[_ID].nftowner;\n        require(msg.sender == data[_ID].nftowner,\"You are not owner of this nft\");\n        // require(msg.sender == , \"You do not own this NFT\");\n        sellData[_ID] = sellnft(_ID,msg.sender,_price,true,block.timestamp);\n        offerExpirationTime = block.timestamp + 10 minutes;\n        _approve(address(this),_ID);\n        // _isApprovedOrOwner(address(this),_ID);\n        // _setApprovalForAll(msg.sender,address(this),true);\n        NFTId.push(_ID);\n        emit sellNFT(msg.sender,_price,block.timestamp,offerExpirationTime);\n    }\n\n    function RemoveSell (uint _ID) public {\n        require(sellData[_ID].NFTOwner==msg.sender,\"Your Are Not Owner Of This NFT \");\n        uint i = 0;\n        while(i < NFTId.length){\n            if(NFTId[i] == _ID){\n                delete NFTId[i];\n            }\n            i++;\n        }\n    }\n\n    function ArrayLengh () public view returns(uint) {\n        return NFTId.length;\n    }\n\n    function BuyNFT (uint _ID) public payable returns(string memory) {\n        require(offerExpirationTime>=block.timestamp,\"Offer Has Ended\");\n        // require(msg.value==sellData[_ID].Price,\"Invalid value\");\n        if(offerExpirationTime<=block.timestamp){\n            sellData[_ID].is_Offer = false;\n            delete NFTId[0];\n            string memory msg = \"This Offer is ended\";\n            return msg;\n        }\n        else{\n            sellData[_ID].is_Offer = true;\n            _approve(msg.sender, _ID);\n            address o = data[_ID].nftowner;\n            safeTransferFrom(o,msg.sender,_ID);\n            payable(o).transfer(msg.value);\n            data[_ID].nftowner = msg.sender;\n            data[_ID].nftprice = sellData[_ID].Price;\n\n            emit buynft(o,msg.sender,sellData[_ID].Price,block.timestamp);\n            delete NFTId[0];\n        }\n    }\n\n    function Offer_ID (uint _index) public view returns(uint) {\n        return NFTId[_index];\n    }\n\n    function offerExpired() public view returns (bool) {\n        return (block.timestamp >= offerExpirationTime);\n    }\n\n}\n\n// 0xc265A2229bF745b2Ec801971e4b8327533076C69",
  "sourcePath": "/home/hp/Documents/block-chain/NFT_Marketplace/contracts/NFT.sol",
  "compiler": {
    "name": "solc",
    "version": "0.8.19+commit.7dd6d404.Emscripten.clang"
  },
  "schemaVersion": "3.4.13",
  "updatedAt": "2023-05-04T06:59:45.319Z",
  "networkType": "ethereum",
  "devdoc": {
    "events": {
      "Approval(address,address,uint256)": {
        "details": "Emitted when `owner` enables `approved` to manage the `tokenId` token."
      },
      "ApprovalForAll(address,address,bool)": {
        "details": "Emitted when `owner` enables or disables (`approved`) `operator` to manage all of its assets."
      },
      "Transfer(address,address,uint256)": {
        "details": "Emitted when `tokenId` token is transferred from `from` to `to`."
      }
    },
    "kind": "dev",
    "methods": {
      "approve(address,uint256)": {
        "details": "See {IERC721-approve}."
      },
      "balanceOf(address)": {
        "details": "See {IERC721-balanceOf}."
      },
      "getApproved(uint256)": {
        "details": "See {IERC721-getApproved}."
      },
      "isApprovedForAll(address,address)": {
        "details": "See {IERC721-isApprovedForAll}."
      },
      "name()": {
        "details": "See {IERC721Metadata-name}."
      },
      "owner()": {
        "details": "Returns the address of the current owner."
      },
      "ownerOf(uint256)": {
        "details": "See {IERC721-ownerOf}."
      },
      "renounceOwnership()": {
        "details": "Leaves the contract without owner. It will not be possible to call `onlyOwner` functions anymore. Can only be called by the current owner. NOTE: Renouncing ownership will leave the contract without an owner, thereby removing any functionality that is only available to the owner."
      },
      "safeTransferFrom(address,address,uint256)": {
        "details": "See {IERC721-safeTransferFrom}."
      },
      "safeTransferFrom(address,address,uint256,bytes)": {
        "details": "See {IERC721-safeTransferFrom}."
      },
      "setApprovalForAll(address,bool)": {
        "details": "See {IERC721-setApprovalForAll}."
      },
      "symbol()": {
        "details": "See {IERC721Metadata-symbol}."
      },
      "tokenByIndex(uint256)": {
        "details": "See {IERC721Enumerable-tokenByIndex}."
      },
      "tokenOfOwnerByIndex(address,uint256)": {
        "details": "See {IERC721Enumerable-tokenOfOwnerByIndex}."
      },
      "tokenURI(uint256)": {
        "details": "See {IERC721Metadata-tokenURI}."
      },
      "totalSupply()": {
        "details": "See {IERC721Enumerable-totalSupply}."
      },
      "transferFrom(address,address,uint256)": {
        "details": "See {IERC721-transferFrom}."
      },
      "transferOwnership(address)": {
        "details": "Transfers ownership of the contract to a new account (`newOwner`). Can only be called by the current owner."
      }
    },
    "version": 1
  },
  "userdoc": {
    "kind": "user",
    "methods": {},
    "version": 1
  }
}